{"abi":[{"type":"constructor","inputs":[{"name":"initialOwner","type":"address","internalType":"address"}],"stateMutability":"nonpayable"},{"type":"function","name":"approve","inputs":[{"name":"to","type":"address","internalType":"address"},{"name":"tokenId","type":"uint256","internalType":"uint256"}],"outputs":[],"stateMutability":"nonpayable"},{"type":"function","name":"balanceOf","inputs":[{"name":"owner","type":"address","internalType":"address"}],"outputs":[{"name":"","type":"uint256","internalType":"uint256"}],"stateMutability":"view"},{"type":"function","name":"deactivatePattern","inputs":[{"name":"tokenId","type":"uint256","internalType":"uint256"},{"name":"reason","type":"string","internalType":"string"}],"outputs":[],"stateMutability":"nonpayable"},{"type":"function","name":"getApproved","inputs":[{"name":"tokenId","type":"uint256","internalType":"uint256"}],"outputs":[{"name":"","type":"address","internalType":"address"}],"stateMutability":"view"},{"type":"function","name":"getCreatorPatterns","inputs":[{"name":"creator","type":"address","internalType":"address"}],"outputs":[{"name":"","type":"uint256[]","internalType":"uint256[]"}],"stateMutability":"view"},{"type":"function","name":"getPatternMetadata","inputs":[{"name":"tokenId","type":"uint256","internalType":"uint256"}],"outputs":[{"name":"","type":"tuple","internalType":"struct BehavioralNFT.PatternMetadata","components":[{"name":"creator","type":"address","internalType":"address"},{"name":"patternType","type":"string","internalType":"string"},{"name":"patternData","type":"bytes","internalType":"bytes"},{"name":"createdAt","type":"uint256","internalType":"uint256"},{"name":"winRate","type":"uint256","internalType":"uint256"},{"name":"totalVolume","type":"uint256","internalType":"uint256"},{"name":"roi","type":"int256","internalType":"int256"},{"name":"isActive","type":"bool","internalType":"bool"}]}],"stateMutability":"view"},{"type":"function","name":"isApprovedForAll","inputs":[{"name":"owner","type":"address","internalType":"address"},{"name":"operator","type":"address","internalType":"address"}],"outputs":[{"name":"","type":"bool","internalType":"bool"}],"stateMutability":"view"},{"type":"function","name":"isPatternActive","inputs":[{"name":"tokenId","type":"uint256","internalType":"uint256"}],"outputs":[{"name":"","type":"bool","internalType":"bool"}],"stateMutability":"view"},{"type":"function","name":"mintPattern","inputs":[{"name":"creator","type":"address","internalType":"address"},{"name":"patternType","type":"string","internalType":"string"},{"name":"patternData","type":"bytes","internalType":"bytes"}],"outputs":[{"name":"","type":"uint256","internalType":"uint256"}],"stateMutability":"nonpayable"},{"type":"function","name":"name","inputs":[],"outputs":[{"name":"","type":"string","internalType":"string"}],"stateMutability":"view"},{"type":"function","name":"owner","inputs":[],"outputs":[{"name":"","type":"address","internalType":"address"}],"stateMutability":"view"},{"type":"function","name":"ownerOf","inputs":[{"name":"tokenId","type":"uint256","internalType":"uint256"}],"outputs":[{"name":"","type":"address","internalType":"address"}],"stateMutability":"view"},{"type":"function","name":"patternDetector","inputs":[],"outputs":[{"name":"","type":"address","internalType":"address"}],"stateMutability":"view"},{"type":"function","name":"patterns","inputs":[{"name":"","type":"uint256","internalType":"uint256"}],"outputs":[{"name":"creator","type":"address","internalType":"address"},{"name":"patternType","type":"string","internalType":"string"},{"name":"patternData","type":"bytes","internalType":"bytes"},{"name":"createdAt","type":"uint256","internalType":"uint256"},{"name":"winRate","type":"uint256","internalType":"uint256"},{"name":"totalVolume","type":"uint256","internalType":"uint256"},{"name":"roi","type":"int256","internalType":"int256"},{"name":"isActive","type":"bool","internalType":"bool"}],"stateMutability":"view"},{"type":"function","name":"pause","inputs":[],"outputs":[],"stateMutability":"nonpayable"},{"type":"function","name":"paused","inputs":[],"outputs":[{"name":"","type":"bool","internalType":"bool"}],"stateMutability":"view"},{"type":"function","name":"reactivatePattern","inputs":[{"name":"tokenId","type":"uint256","internalType":"uint256"}],"outputs":[],"stateMutability":"nonpayable"},{"type":"function","name":"renounceOwnership","inputs":[],"outputs":[],"stateMutability":"nonpayable"},{"type":"function","name":"safeTransferFrom","inputs":[{"name":"from","type":"address","internalType":"address"},{"name":"to","type":"address","internalType":"address"},{"name":"tokenId","type":"uint256","internalType":"uint256"}],"outputs":[],"stateMutability":"nonpayable"},{"type":"function","name":"safeTransferFrom","inputs":[{"name":"from","type":"address","internalType":"address"},{"name":"to","type":"address","internalType":"address"},{"name":"tokenId","type":"uint256","internalType":"uint256"},{"name":"data","type":"bytes","internalType":"bytes"}],"outputs":[],"stateMutability":"nonpayable"},{"type":"function","name":"setApprovalForAll","inputs":[{"name":"operator","type":"address","internalType":"address"},{"name":"approved","type":"bool","internalType":"bool"}],"outputs":[],"stateMutability":"nonpayable"},{"type":"function","name":"setPatternDetector","inputs":[{"name":"detector","type":"address","internalType":"address"}],"outputs":[],"stateMutability":"nonpayable"},{"type":"function","name":"supportsInterface","inputs":[{"name":"interfaceId","type":"bytes4","internalType":"bytes4"}],"outputs":[{"name":"","type":"bool","internalType":"bool"}],"stateMutability":"view"},{"type":"function","name":"symbol","inputs":[],"outputs":[{"name":"","type":"string","internalType":"string"}],"stateMutability":"view"},{"type":"function","name":"tokenURI","inputs":[{"name":"tokenId","type":"uint256","internalType":"uint256"}],"outputs":[{"name":"","type":"string","internalType":"string"}],"stateMutability":"view"},{"type":"function","name":"totalPatterns","inputs":[],"outputs":[{"name":"","type":"uint256","internalType":"uint256"}],"stateMutability":"view"},{"type":"function","name":"transferFrom","inputs":[{"name":"from","type":"address","internalType":"address"},{"name":"to","type":"address","internalType":"address"},{"name":"tokenId","type":"uint256","internalType":"uint256"}],"outputs":[],"stateMutability":"nonpayable"},{"type":"function","name":"transferOwnership","inputs":[{"name":"newOwner","type":"address","internalType":"address"}],"outputs":[],"stateMutability":"nonpayable"},{"type":"function","name":"unpause","inputs":[],"outputs":[],"stateMutability":"nonpayable"},{"type":"function","name":"updatePerformance","inputs":[{"name":"tokenId","type":"uint256","internalType":"uint256"},{"name":"winRate","type":"uint256","internalType":"uint256"},{"name":"totalVolume","type":"uint256","internalType":"uint256"},{"name":"roi","type":"int256","internalType":"int256"}],"outputs":[],"stateMutability":"nonpayable"},{"type":"event","name":"Approval","inputs":[{"name":"owner","type":"address","indexed":true,"internalType":"address"},{"name":"approved","type":"address","indexed":true,"internalType":"address"},{"name":"tokenId","type":"uint256","indexed":true,"internalType":"uint256"}],"anonymous":false},{"type":"event","name":"ApprovalForAll","inputs":[{"name":"owner","type":"address","indexed":true,"internalType":"address"},{"name":"operator","type":"address","indexed":true,"internalType":"address"},{"name":"approved","type":"bool","indexed":false,"internalType":"bool"}],"anonymous":false},{"type":"event","name":"BatchMetadataUpdate","inputs":[{"name":"_fromTokenId","type":"uint256","indexed":false,"internalType":"uint256"},{"name":"_toTokenId","type":"uint256","indexed":false,"internalType":"uint256"}],"anonymous":false},{"type":"event","name":"MetadataUpdate","inputs":[{"name":"_tokenId","type":"uint256","indexed":false,"internalType":"uint256"}],"anonymous":false},{"type":"event","name":"OwnershipTransferred","inputs":[{"name":"previousOwner","type":"address","indexed":true,"internalType":"address"},{"name":"newOwner","type":"address","indexed":true,"internalType":"address"}],"anonymous":false},{"type":"event","name":"PatternDeactivated","inputs":[{"name":"tokenId","type":"uint256","indexed":true,"internalType":"uint256"},{"name":"reason","type":"string","indexed":false,"internalType":"string"}],"anonymous":false},{"type":"event","name":"PatternDetectorUpdated","inputs":[{"name":"oldDetector","type":"address","indexed":true,"internalType":"address"},{"name":"newDetector","type":"address","indexed":true,"internalType":"address"}],"anonymous":false},{"type":"event","name":"PatternMinted","inputs":[{"name":"tokenId","type":"uint256","indexed":true,"internalType":"uint256"},{"name":"creator","type":"address","indexed":true,"internalType":"address"},{"name":"patternType","type":"string","indexed":false,"internalType":"string"},{"name":"patternData","type":"bytes","indexed":false,"internalType":"bytes"},{"name":"timestamp","type":"uint256","indexed":false,"internalType":"uint256"}],"anonymous":false},{"type":"event","name":"PatternPerformanceUpdated","inputs":[{"name":"tokenId","type":"uint256","indexed":true,"internalType":"uint256"},{"name":"winRate","type":"uint256","indexed":false,"internalType":"uint256"},{"name":"totalVolume","type":"uint256","indexed":false,"internalType":"uint256"},{"name":"roi","type":"int256","indexed":false,"internalType":"int256"}],"anonymous":false},{"type":"event","name":"Paused","inputs":[{"name":"account","type":"address","indexed":false,"internalType":"address"}],"anonymous":false},{"type":"event","name":"Transfer","inputs":[{"name":"from","type":"address","indexed":true,"internalType":"address"},{"name":"to","type":"address","indexed":true,"internalType":"address"},{"name":"tokenId","type":"uint256","indexed":true,"internalType":"uint256"}],"anonymous":false},{"type":"event","name":"Unpaused","inputs":[{"name":"account","type":"address","indexed":false,"internalType":"address"}],"anonymous":false},{"type":"error","name":"ERC721IncorrectOwner","inputs":[{"name":"sender","type":"address","internalType":"address"},{"name":"tokenId","type":"uint256","internalType":"uint256"},{"name":"owner","type":"address","internalType":"address"}]},{"type":"error","name":"ERC721InsufficientApproval","inputs":[{"name":"operator","type":"address","internalType":"address"},{"name":"tokenId","type":"uint256","internalType":"uint256"}]},{"type":"error","name":"ERC721InvalidApprover","inputs":[{"name":"approver","type":"address","internalType":"address"}]},{"type":"error","name":"ERC721InvalidOperator","inputs":[{"name":"operator","type":"address","internalType":"address"}]},{"type":"error","name":"ERC721InvalidOwner","inputs":[{"name":"owner","type":"address","internalType":"address"}]},{"type":"error","name":"ERC721InvalidReceiver","inputs":[{"name":"receiver","type":"address","internalType":"address"}]},{"type":"error","name":"ERC721InvalidSender","inputs":[{"name":"sender","type":"address","internalType":"address"}]},{"type":"error","name":"ERC721NonexistentToken","inputs":[{"name":"tokenId","type":"uint256","internalType":"uint256"}]},{"type":"error","name":"EnforcedPause","inputs":[]},{"type":"error","name":"ExpectedPause","inputs":[]},{"type":"error","name":"InvalidAddress","inputs":[]},{"type":"error","name":"InvalidPatternData","inputs":[]},{"type":"error","name":"InvalidPatternType","inputs":[]},{"type":"error","name":"OwnableInvalidOwner","inputs":[{"name":"owner","type":"address","internalType":"address"}]},{"type":"error","name":"OwnableUnauthorizedAccount","inputs":[{"name":"account","type":"address","internalType":"address"}]},{"type":"error","name":"PatternAlreadyActive","inputs":[]},{"type":"error","name":"PatternInactive","inputs":[]},{"type":"error","name":"PatternNotFound","inputs":[]},{"type":"error","name":"ReentrancyGuardReentrantCall","inputs":[]},{"type":"error","name":"Unauthorized","inputs":[]}],"bytecode":{"object":"0x608060405234801562000010575f80fd5b506040516200246e3803806200246e83398101604081905262000033916200017a565b806040518060400160405280601681526020017f4265686176696f72616c205061747465726e204e465400000000000000000000815250604051806040016040528060048152602001631094105560e21b815250815f908162000097919062000249565b506001620000a6828262000249565b5050506001600160a01b038116620000d757604051631e4fbdf760e01b81525f600482015260240160405180910390fd5b620000e28162000129565b506007805460ff60a01b1916905560016008556001600160a01b0381166200011d5760405163e6c4247b60e01b815260040160405180910390fd5b506001600b5562000311565b600780546001600160a01b038381166001600160a01b0319831681179093556040519116919082907f8be0079c531659141344cd1fd0a4f28419497f9722a3daafe3b4186f6b6457e0905f90a35050565b5f602082840312156200018b575f80fd5b81516001600160a01b0381168114620001a2575f80fd5b9392505050565b634e487b7160e01b5f52604160045260245ffd5b600181811c90821680620001d257607f821691505b602082108103620001f157634e487b7160e01b5f52602260045260245ffd5b50919050565b601f82111562000244575f81815260208120601f850160051c810160208610156200021f5750805b601f850160051c820191505b8181101562000240578281556001016200022b565b5050505b505050565b81516001600160401b03811115620002655762000265620001a9565b6200027d81620002768454620001bd565b84620001f7565b602080601f831160018114620002b3575f84156200029b5750858301515b5f19600386901b1c1916600185901b17855562000240565b5f85815260208120601f198616915b82811015620002e357888601518255948401946001909101908401620002c2565b50858210156200030157878501515f19600388901b60f8161c191681555b5050505050600190811b01905550565b61214f806200031f5f395ff3fe608060405234801561000f575f80fd5b50600436106101d1575f3560e01c806370a08231116100fe578063b785aab31161009e578063c87b56dd1161006e578063c87b56dd14610408578063e985e9c51461041b578063f2fde38b1461042e578063fdb7f1cb14610441575f80fd5b8063b785aab3146103a2578063b88d4fde146103c2578063c1ad5be7146103d5578063c65389e0146103f5575f80fd5b80638456cb59116100d95780638456cb591461036e5780638da5cb5b1461037657806395d89b4114610387578063a22cb4651461038f575f80fd5b806370a0823114610340578063715018a6146103535780637b3f454c1461035b575f80fd5b80631b6b1cdb1161017457806342842e0e1161014457806342842e0e146103005780635c975abb146103135780635ce3aab0146103255780636352211e1461032d575f80fd5b80631b6b1cdb146102ad57806323b872dd146102d257806324874fcb146102e55780633f4ba83a146102f8575f80fd5b8063081812fc116101af578063081812fc1461023d578063095ea7b31461025057806318bde7db146102655780631951eade1461028c575f80fd5b806301ffc9a7146101d557806303d99742146101fd57806306fdde0314610228575b5f80fd5b6101e86101e3366004611a2d565b610454565b60405190151581526020015b60405180910390f35b600c54610210906001600160a01b031681565b6040516001600160a01b0390911681526020016101f4565b610230610464565b6040516101f49190611a95565b61021061024b366004611aa7565b6104f3565b61026361025e366004611ad9565b61051a565b005b610278610273366004611aa7565b610529565b6040516101f4989796959493929190611b01565b61029f61029a366004611c04565b610683565b6040519081526020016101f4565b6101e86102bb366004611aa7565b5f9081526009602052604090206007015460ff1690565b6102636102e0366004611c73565b61089d565b6102636102f3366004611aa7565b61092b565b6102636109b2565b61026361030e366004611c73565b6109c4565b600754600160a01b900460ff166101e8565b61029f6109e3565b61021061033b366004611aa7565b6109f8565b61029f61034e366004611cac565b610a02565b610263610a47565b610263610369366004611cc5565b610a58565b610263610b1d565b6007546001600160a01b0316610210565b610230610b2d565b61026361039d366004611cf4565b610b3c565b6103b56103b0366004611cac565b610b47565b6040516101f49190611d2d565b6102636103d0366004611d70565b610bb0565b6103e86103e3366004611aa7565b610bc7565b6040516101f49190611dd4565b610263610403366004611cac565b610dce565b610230610416366004611aa7565b610e4e565b6101e8610429366004611e6a565b610e59565b61026361043c366004611cac565b610e86565b61026361044f366004611e9b565b610ec3565b5f61045e82610fce565b92915050565b60605f805461047290611edf565b80601f016020809104026020016040519081016040528092919081815260200182805461049e90611edf565b80156104e95780601f106104c0576101008083540402835291602001916104e9565b820191905f5260205f20905b8154815290600101906020018083116104cc57829003601f168201915b5050505050905090565b5f6104fd82610ff2565b505f828152600460205260409020546001600160a01b031661045e565b61052582823361102a565b5050565b60096020525f9081526040902080546001820180546001600160a01b03909216929161055490611edf565b80601f016020809104026020016040519081016040528092919081815260200182805461058090611edf565b80156105cb5780601f106105a2576101008083540402835291602001916105cb565b820191905f5260205f20905b8154815290600101906020018083116105ae57829003601f168201915b5050505050908060020180546105e090611edf565b80601f016020809104026020016040519081016040528092919081815260200182805461060c90611edf565b80156106575780601f1061062e57610100808354040283529160200191610657565b820191905f5260205f20905b81548152906001019060200180831161063a57829003601f168201915b505050600384015460048501546005860154600687015460079097015495969295919450925060ff1688565b600c545f906001600160a01b031633146106af576040516282b42960e81b815260040160405180910390fd5b6106b7611037565b6106bf611062565b6001600160a01b0384166106e65760405163e6c4247b60e01b815260040160405180910390fd5b82515f03610707576040516328b1b15760e01b815260040160405180910390fd5b81515f0361072857604051631286f6f160e01b815260040160405180910390fd5b600b80545f918261073883611f2b565b919050559050610748858261108c565b60408051610100810182526001600160a01b03878116825260208083018881528385018890524260608501525f6080850181905260a0850181905260c08501819052600160e08601819052878252600990935294909420835181546001600160a01b0319169316929092178255925191929091908201906107c99082611f90565b50604082015160028201906107de9082611f90565b50606082015160038201556080820151600482015560a0820151600582015560c0820151600682015560e0909101516007909101805460ff19169115159190911790556001600160a01b0385165f818152600a60209081526040808320805460018101825590845291909220018390555182907f82813f67f127b12e9d248ed6b261959675f171c3fafe804ea7a44bbf9bd97521906108829088908890429061204c565b60405180910390a390506108966001600855565b9392505050565b6001600160a01b0382166108cb57604051633250574960e11b81525f60048201526024015b60405180910390fd5b5f6108d78383336110a5565b9050836001600160a01b0316816001600160a01b031614610925576040516364283d7b60e01b81526001600160a01b03808616600483015260248201849052821660448201526064016108c2565b50505050565b6109336110b9565b5f818152600960205260408120600301549003610963576040516313be235b60e31b815260040160405180910390fd5b5f8181526009602052604090206007015460ff16156109955760405163a764a55960e01b815260040160405180910390fd5b5f908152600960205260409020600701805460ff19166001179055565b6109ba6110b9565b6109c26110e6565b565b6109de83838360405180602001604052805f815250610bb0565b505050565b5f6001600b546109f39190612081565b905090565b5f61045e82610ff2565b5f6001600160a01b038216610a2c576040516322718ad960e21b81525f60048201526024016108c2565b506001600160a01b03165f9081526003602052604090205490565b610a4f6110b9565b6109c25f61113b565b600c546001600160a01b03163314610a82576040516282b42960e81b815260040160405180910390fd5b5f848152600960205260408120600301549003610ab2576040516313be235b60e31b815260040160405180910390fd5b5f848152600960209081526040918290206004810186905560058101859055600601839055815185815290810184905290810182905284907f9680a7c4b052d0205ba9c3570891f74bb670e625f5ec7b2b145e8fc5468667029060600160405180910390a250505050565b610b256110b9565b6109c261118c565b60606001805461047290611edf565b6105253383836111cf565b6001600160a01b0381165f908152600a6020908152604091829020805483518184028101840190945280845260609392830182828015610ba457602002820191905f5260205f20905b815481526020019060010190808311610b90575b50505050509050919050565b610bbb84848461089d565b6109258484848461126d565b610c146040518061010001604052805f6001600160a01b0316815260200160608152602001606081526020015f81526020015f81526020015f81526020015f81526020015f151581525090565b5f828152600960205260408120600301549003610c44576040516313be235b60e31b815260040160405180910390fd5b5f828152600960209081526040918290208251610100810190935280546001600160a01b031683526001810180549192840191610c8090611edf565b80601f0160208091040260200160405190810160405280929190818152602001828054610cac90611edf565b8015610cf75780601f10610cce57610100808354040283529160200191610cf7565b820191905f5260205f20905b815481529060010190602001808311610cda57829003601f168201915b50505050508152602001600282018054610d1090611edf565b80601f0160208091040260200160405190810160405280929190818152602001828054610d3c90611edf565b8015610d875780601f10610d5e57610100808354040283529160200191610d87565b820191905f5260205f20905b815481529060010190602001808311610d6a57829003601f168201915b50505091835250506003820154602082015260048201546040820152600582015460608201526006820154608082015260079091015460ff16151560a09091015292915050565b610dd66110b9565b6001600160a01b038116610dfd5760405163e6c4247b60e01b815260040160405180910390fd5b600c80546001600160a01b038381166001600160a01b0319831681179093556040519116919082907f9096dc1c53d5639ef165efcf841166fb0c7f3c3af1941239ff659f0a0886eadd905f90a35050565b606061045e82611393565b6001600160a01b039182165f90815260056020908152604080832093909416825291909152205460ff1690565b610e8e6110b9565b6001600160a01b038116610eb757604051631e4fbdf760e01b81525f60048201526024016108c2565b610ec08161113b565b50565b81610ecd816109f8565b6001600160a01b0316336001600160a01b031614158015610ef957506007546001600160a01b03163314155b15610f16576040516282b42960e81b815260040160405180910390fd5b5f838152600960205260408120600301549003610f46576040516313be235b60e31b815260040160405180910390fd5b5f8381526009602052604090206007015460ff16610f775760405163140f6a3b60e31b815260040160405180910390fd5b5f8381526009602052604090819020600701805460ff191690555183907f76a0d702404bd28ac4394a27d042dd483970be8c1a29ad047cab4264d7f9688f90610fc1908590611a95565b60405180910390a2505050565b5f6001600160e01b03198216632483248360e11b148061045e575061045e82611496565b5f818152600260205260408120546001600160a01b03168061045e57604051637e27328960e01b8152600481018490526024016108c2565b6109de83838360016114e5565b600754600160a01b900460ff16156109c25760405163d93c066560e01b815260040160405180910390fd5b60026008540361108557604051633ee5aeb560e01b815260040160405180910390fd5b6002600855565b610525828260405180602001604052805f8152506115e9565b5f6110b18484846115ff565b949350505050565b6007546001600160a01b031633146109c25760405163118cdaa760e01b81523360048201526024016108c2565b6110ee6116f1565b6007805460ff60a01b191690557f5db9ee0a495bf2e6ff9c91a7834c1ba4fdd244a5e8aa4e537bd38aeae4b073aa335b6040516001600160a01b03909116815260200160405180910390a1565b600780546001600160a01b038381166001600160a01b0319831681179093556040519116919082907f8be0079c531659141344cd1fd0a4f28419497f9722a3daafe3b4186f6b6457e0905f90a35050565b611194611037565b6007805460ff60a01b1916600160a01b1790557f62e78cea01bee320cd4e420270b5ea74000d11b0c9f74754ebdbfc544b05a25861111e3390565b6001600160a01b03821661120157604051630b61174360e31b81526001600160a01b03831660048201526024016108c2565b6001600160a01b038381165f81815260056020908152604080832094871680845294825291829020805460ff191686151590811790915591519182527f17307eab39ab6107e8899845ad3d59bd9653f200f220920489ca2b5937696c31910160405180910390a3505050565b6001600160a01b0383163b1561092557604051630a85bd0160e11b81526001600160a01b0384169063150b7a02906112af903390889087908790600401612094565b6020604051808303815f875af19250505080156112e9575060408051601f3d908101601f191682019092526112e6918101906120d0565b60015b611350573d808015611316576040519150601f19603f3d011682016040523d82523d5f602084013e61131b565b606091505b5080515f0361134857604051633250574960e11b81526001600160a01b03851660048201526024016108c2565b805181602001fd5b6001600160e01b03198116630a85bd0160e11b1461138c57604051633250574960e11b81526001600160a01b03851660048201526024016108c2565b5050505050565b606061139e82610ff2565b505f82815260066020526040812080546113b790611edf565b80601f01602080910402602001604051908101604052809291908181526020018280546113e390611edf565b801561142e5780601f106114055761010080835404028352916020019161142e565b820191905f5260205f20905b81548152906001019060200180831161141157829003601f168201915b505050505090505f61144a60408051602081019091525f815290565b905080515f0361145b575092915050565b81511561148d5780826040516020016114759291906120eb565b60405160208183030381529060405292505050919050565b6110b18461171b565b5f6001600160e01b031982166380ac58cd60e01b14806114c657506001600160e01b03198216635b5e139f60e01b145b8061045e57506301ffc9a760e01b6001600160e01b031983161461045e565b80806114f957506001600160a01b03821615155b156115ba575f61150884610ff2565b90506001600160a01b038316158015906115345750826001600160a01b0316816001600160a01b031614155b801561154757506115458184610e59565b155b156115705760405163a9fbf51f60e01b81526001600160a01b03841660048201526024016108c2565b81156115b85783856001600160a01b0316826001600160a01b03167f8c5be1e5ebec7d5bd14f71427d1e84f3dd0314c0f7b2291e5b200ac8c7c3b92560405160405180910390a45b505b50505f90815260046020526040902080546001600160a01b0319166001600160a01b0392909216919091179055565b6115f3838361178b565b6109de5f84848461126d565b5f828152600260205260408120546001600160a01b039081169083161561162b5761162b8184866117ec565b6001600160a01b03811615611665576116465f855f806114e5565b6001600160a01b0381165f90815260036020526040902080545f190190555b6001600160a01b03851615611693576001600160a01b0385165f908152600360205260409020805460010190555b5f8481526002602052604080822080546001600160a01b0319166001600160a01b0389811691821790925591518793918516917fddf252ad1be2c89b69c2b068fc378daa952ba7f163c4a11628f55a4df523b3ef91a4949350505050565b600754600160a01b900460ff166109c257604051638dfc202b60e01b815260040160405180910390fd5b606061172682610ff2565b505f61173c60408051602081019091525f815290565b90505f81511161175a5760405180602001604052805f815250610896565b8061176484611850565b6040516020016117759291906120eb565b6040516020818303038152906040529392505050565b6001600160a01b0382166117b457604051633250574960e11b81525f60048201526024016108c2565b5f6117c083835f6110a5565b90506001600160a01b038116156109de576040516339e3563760e11b81525f60048201526024016108c2565b6117f78383836118e0565b6109de576001600160a01b03831661182557604051637e27328960e01b8152600481018290526024016108c2565b60405163177e802f60e01b81526001600160a01b0383166004820152602481018290526044016108c2565b60605f61185c83611941565b60010190505f8167ffffffffffffffff81111561187b5761187b611b67565b6040519080825280601f01601f1916602001820160405280156118a5576020820181803683370190505b5090508181016020015b5f19016f181899199a1a9b1b9c1cb0b131b232b360811b600a86061a8153600a85049450846118af57509392505050565b5f6001600160a01b038316158015906110b15750826001600160a01b0316846001600160a01b0316148061191957506119198484610e59565b806110b15750505f908152600460205260409020546001600160a01b03908116911614919050565b5f8072184f03e93ff9f4daa797ed6e38ed64bf6a1f0160401b831061197f5772184f03e93ff9f4daa797ed6e38ed64bf6a1f0160401b830492506040015b6d04ee2d6d415b85acef810000000083106119ab576d04ee2d6d415b85acef8100000000830492506020015b662386f26fc1000083106119c957662386f26fc10000830492506010015b6305f5e10083106119e1576305f5e100830492506008015b61271083106119f557612710830492506004015b60648310611a07576064830492506002015b600a831061045e5760010192915050565b6001600160e01b031981168114610ec0575f80fd5b5f60208284031215611a3d575f80fd5b813561089681611a18565b5f5b83811015611a62578181015183820152602001611a4a565b50505f910152565b5f8151808452611a81816020860160208601611a48565b601f01601f19169290920160200192915050565b602081525f6108966020830184611a6a565b5f60208284031215611ab7575f80fd5b5035919050565b80356001600160a01b0381168114611ad4575f80fd5b919050565b5f8060408385031215611aea575f80fd5b611af383611abe565b946020939093013593505050565b6001600160a01b0389168152610100602082018190525f90611b258382018b611a6a565b90508281036040840152611b39818a611a6a565b60608401989098525050608081019490945260a084019290925260c0830152151560e0909101529392505050565b634e487b7160e01b5f52604160045260245ffd5b5f82601f830112611b8a575f80fd5b813567ffffffffffffffff80821115611ba557611ba5611b67565b604051601f8301601f19908116603f01168101908282118183101715611bcd57611bcd611b67565b81604052838152866020858801011115611be5575f80fd5b836020870160208301375f602085830101528094505050505092915050565b5f805f60608486031215611c16575f80fd5b611c1f84611abe565b9250602084013567ffffffffffffffff80821115611c3b575f80fd5b611c4787838801611b7b565b93506040860135915080821115611c5c575f80fd5b50611c6986828701611b7b565b9150509250925092565b5f805f60608486031215611c85575f80fd5b611c8e84611abe565b9250611c9c60208501611abe565b9150604084013590509250925092565b5f60208284031215611cbc575f80fd5b61089682611abe565b5f805f8060808587031215611cd8575f80fd5b5050823594602084013594506040840135936060013592509050565b5f8060408385031215611d05575f80fd5b611d0e83611abe565b915060208301358015158114611d22575f80fd5b809150509250929050565b602080825282518282018190525f9190848201906040850190845b81811015611d6457835183529284019291840191600101611d48565b50909695505050505050565b5f805f8060808587031215611d83575f80fd5b611d8c85611abe565b9350611d9a60208601611abe565b925060408501359150606085013567ffffffffffffffff811115611dbc575f80fd5b611dc887828801611b7b565b91505092959194509250565b602080825282516001600160a01b031682820152820151610100604083018190525f9190611e06610120850183611a6a565b91506040850151601f19858403016060860152611e238382611a6a565b92505060608501516080850152608085015160a085015260a085015160c085015260c085015160e085015260e0850151611e608286018215159052565b5090949350505050565b5f8060408385031215611e7b575f80fd5b611e8483611abe565b9150611e9260208401611abe565b90509250929050565b5f8060408385031215611eac575f80fd5b82359150602083013567ffffffffffffffff811115611ec9575f80fd5b611ed585828601611b7b565b9150509250929050565b600181811c90821680611ef357607f821691505b602082108103611f1157634e487b7160e01b5f52602260045260245ffd5b50919050565b634e487b7160e01b5f52601160045260245ffd5b5f60018201611f3c57611f3c611f17565b5060010190565b601f8211156109de575f81815260208120601f850160051c81016020861015611f695750805b601f850160051c820191505b81811015611f8857828155600101611f75565b505050505050565b815167ffffffffffffffff811115611faa57611faa611b67565b611fbe81611fb88454611edf565b84611f43565b602080601f831160018114611ff1575f8415611fda5750858301515b5f19600386901b1c1916600185901b178555611f88565b5f85815260208120601f198616915b8281101561201f57888601518255948401946001909101908401612000565b508582101561203c57878501515f19600388901b60f8161c191681555b5050505050600190811b01905550565b606081525f61205e6060830186611a6a565b82810360208401526120708186611a6a565b915050826040830152949350505050565b8181038181111561045e5761045e611f17565b6001600160a01b03858116825284166020820152604081018390526080606082018190525f906120c690830184611a6a565b9695505050505050565b5f602082840312156120e0575f80fd5b815161089681611a18565b5f83516120fc818460208801611a48565b835190830190612110818360208801611a48565b0194935050505056fea2646970667358221220540bf7ebb6674ea7e6e819e6ff210043752143fc6442d9683d7680b451a35f5064736f6c63430008140033","linkReferences":{}},"methodIdentifiers":{"approve(address,uint256)":"095ea7b3","balanceOf(address)":"70a08231","deactivatePattern(uint256,string)":"fdb7f1cb","getApproved(uint256)":"081812fc","getCreatorPatterns(address)":"b785aab3","getPatternMetadata(uint256)":"c1ad5be7","isApprovedForAll(address,address)":"e985e9c5","isPatternActive(uint256)":"1b6b1cdb","mintPattern(address,string,bytes)":"1951eade","name()":"06fdde03","owner()":"8da5cb5b","ownerOf(uint256)":"6352211e","patternDetector()":"03d99742","patterns(uint256)":"18bde7db","pause()":"8456cb59","paused()":"5c975abb","reactivatePattern(uint256)":"24874fcb","renounceOwnership()":"715018a6","safeTransferFrom(address,address,uint256)":"42842e0e","safeTransferFrom(address,address,uint256,bytes)":"b88d4fde","setApprovalForAll(address,bool)":"a22cb465","setPatternDetector(address)":"c65389e0","supportsInterface(bytes4)":"01ffc9a7","symbol()":"95d89b41","tokenURI(uint256)":"c87b56dd","totalPatterns()":"5ce3aab0","transferFrom(address,address,uint256)":"23b872dd","transferOwnership(address)":"f2fde38b","unpause()":"3f4ba83a","updatePerformance(uint256,uint256,uint256,int256)":"7b3f454c"},"id":0}