{"abi":[{"type":"constructor","inputs":[{"name":"_behavioralNFT","type":"address","internalType":"address"},{"name":"initialOwner","type":"address","internalType":"address"}],"stateMutability":"nonpayable"},{"type":"function","name":"MAX_DELEGATION_DEPTH","inputs":[],"outputs":[{"name":"","type":"uint256","internalType":"uint256"}],"stateMutability":"view"},{"type":"function","name":"MAX_PERCENTAGE","inputs":[],"outputs":[{"name":"","type":"uint256","internalType":"uint256"}],"stateMutability":"view"},{"type":"function","name":"MIN_PERCENTAGE","inputs":[],"outputs":[{"name":"","type":"uint256","internalType":"uint256"}],"stateMutability":"view"},{"type":"function","name":"behavioralNFT","inputs":[],"outputs":[{"name":"","type":"address","internalType":"contract IBehavioralNFT"}],"stateMutability":"view"},{"type":"function","name":"createDelegation","inputs":[{"name":"patternTokenId","type":"uint256","internalType":"uint256"},{"name":"percentageAllocation","type":"uint256","internalType":"uint256"},{"name":"permissions","type":"tuple","internalType":"struct DelegationRouter.DelegationPermissions","components":[{"name":"maxSpendPerTx","type":"uint256","internalType":"uint256"},{"name":"maxSpendPerDay","type":"uint256","internalType":"uint256"},{"name":"expiresAt","type":"uint256","internalType":"uint256"},{"name":"allowedTokens","type":"address[]","internalType":"address[]"},{"name":"requiresConditionalCheck","type":"bool","internalType":"bool"}]},{"name":"conditions","type":"tuple","internalType":"struct DelegationRouter.ConditionalRequirements","components":[{"name":"minWinRate","type":"uint256","internalType":"uint256"},{"name":"minROI","type":"int256","internalType":"int256"},{"name":"minVolume","type":"uint256","internalType":"uint256"},{"name":"isActive","type":"bool","internalType":"bool"}]},{"name":"smartAccount","type":"address","internalType":"address"}],"outputs":[{"name":"","type":"uint256","internalType":"uint256"}],"stateMutability":"nonpayable"},{"type":"function","name":"createSimpleDelegation","inputs":[{"name":"patternTokenId","type":"uint256","internalType":"uint256"},{"name":"percentageAllocation","type":"uint256","internalType":"uint256"},{"name":"smartAccount","type":"address","internalType":"address"}],"outputs":[{"name":"","type":"uint256","internalType":"uint256"}],"stateMutability":"nonpayable"},{"type":"function","name":"delegations","inputs":[{"name":"","type":"uint256","internalType":"uint256"}],"outputs":[{"name":"delegator","type":"address","internalType":"address"},{"name":"patternTokenId","type":"uint256","internalType":"uint256"},{"name":"percentageAllocation","type":"uint256","internalType":"uint256"},{"name":"permissions","type":"tuple","internalType":"struct DelegationRouter.DelegationPermissions","components":[{"name":"maxSpendPerTx","type":"uint256","internalType":"uint256"},{"name":"maxSpendPerDay","type":"uint256","internalType":"uint256"},{"name":"expiresAt","type":"uint256","internalType":"uint256"},{"name":"allowedTokens","type":"address[]","internalType":"address[]"},{"name":"requiresConditionalCheck","type":"bool","internalType":"bool"}]},{"name":"conditions","type":"tuple","internalType":"struct DelegationRouter.ConditionalRequirements","components":[{"name":"minWinRate","type":"uint256","internalType":"uint256"},{"name":"minROI","type":"int256","internalType":"int256"},{"name":"minVolume","type":"uint256","internalType":"uint256"},{"name":"isActive","type":"bool","internalType":"bool"}]},{"name":"createdAt","type":"uint256","internalType":"uint256"},{"name":"totalSpentToday","type":"uint256","internalType":"uint256"},{"name":"lastResetTimestamp","type":"uint256","internalType":"uint256"},{"name":"isActive","type":"bool","internalType":"bool"},{"name":"smartAccountAddress","type":"address","internalType":"address"}],"stateMutability":"view"},{"type":"function","name":"executionEngine","inputs":[],"outputs":[{"name":"","type":"address","internalType":"address"}],"stateMutability":"view"},{"type":"function","name":"getDelegation","inputs":[{"name":"delegationId","type":"uint256","internalType":"uint256"}],"outputs":[{"name":"","type":"tuple","internalType":"struct DelegationRouter.Delegation","components":[{"name":"delegator","type":"address","internalType":"address"},{"name":"patternTokenId","type":"uint256","internalType":"uint256"},{"name":"percentageAllocation","type":"uint256","internalType":"uint256"},{"name":"permissions","type":"tuple","internalType":"struct DelegationRouter.DelegationPermissions","components":[{"name":"maxSpendPerTx","type":"uint256","internalType":"uint256"},{"name":"maxSpendPerDay","type":"uint256","internalType":"uint256"},{"name":"expiresAt","type":"uint256","internalType":"uint256"},{"name":"allowedTokens","type":"address[]","internalType":"address[]"},{"name":"requiresConditionalCheck","type":"bool","internalType":"bool"}]},{"name":"conditions","type":"tuple","internalType":"struct DelegationRouter.ConditionalRequirements","components":[{"name":"minWinRate","type":"uint256","internalType":"uint256"},{"name":"minROI","type":"int256","internalType":"int256"},{"name":"minVolume","type":"uint256","internalType":"uint256"},{"name":"isActive","type":"bool","internalType":"bool"}]},{"name":"createdAt","type":"uint256","internalType":"uint256"},{"name":"totalSpentToday","type":"uint256","internalType":"uint256"},{"name":"lastResetTimestamp","type":"uint256","internalType":"uint256"},{"name":"isActive","type":"bool","internalType":"bool"},{"name":"smartAccountAddress","type":"address","internalType":"address"}]}],"stateMutability":"view"},{"type":"function","name":"getDelegationBasics","inputs":[{"name":"delegationId","type":"uint256","internalType":"uint256"}],"outputs":[{"name":"delegator","type":"address","internalType":"address"},{"name":"patternTokenId","type":"uint256","internalType":"uint256"},{"name":"percentageAllocation","type":"uint256","internalType":"uint256"},{"name":"isActive","type":"bool","internalType":"bool"},{"name":"smartAccountAddress","type":"address","internalType":"address"},{"name":"createdAt","type":"uint256","internalType":"uint256"}],"stateMutability":"view"},{"type":"function","name":"getDelegationConditions","inputs":[{"name":"delegationId","type":"uint256","internalType":"uint256"}],"outputs":[{"name":"minWinRate","type":"uint256","internalType":"uint256"},{"name":"minROI","type":"int256","internalType":"int256"},{"name":"minVolume","type":"uint256","internalType":"uint256"},{"name":"isActive","type":"bool","internalType":"bool"}],"stateMutability":"view"},{"type":"function","name":"getDelegationExecutions","inputs":[{"name":"delegationId","type":"uint256","internalType":"uint256"}],"outputs":[{"name":"","type":"tuple[]","internalType":"struct DelegationRouter.ExecutionRecord[]","components":[{"name":"delegationId","type":"uint256","internalType":"uint256"},{"name":"patternTokenId","type":"uint256","internalType":"uint256"},{"name":"executor","type":"address","internalType":"address"},{"name":"amount","type":"uint256","internalType":"uint256"},{"name":"token","type":"address","internalType":"address"},{"name":"timestamp","type":"uint256","internalType":"uint256"},{"name":"success","type":"bool","internalType":"bool"}]}],"stateMutability":"view"},{"type":"function","name":"getDelegationId","inputs":[{"name":"delegator","type":"address","internalType":"address"},{"name":"patternTokenId","type":"uint256","internalType":"uint256"}],"outputs":[{"name":"","type":"uint256","internalType":"uint256"}],"stateMutability":"view"},{"type":"function","name":"getDelegationPermissions","inputs":[{"name":"delegationId","type":"uint256","internalType":"uint256"}],"outputs":[{"name":"maxSpendPerTx","type":"uint256","internalType":"uint256"},{"name":"maxSpendPerDay","type":"uint256","internalType":"uint256"},{"name":"expiresAt","type":"uint256","internalType":"uint256"},{"name":"requiresConditionalCheck","type":"bool","internalType":"bool"}],"stateMutability":"view"},{"type":"function","name":"getDelegatorDelegations","inputs":[{"name":"delegator","type":"address","internalType":"address"}],"outputs":[{"name":"","type":"uint256[]","internalType":"uint256[]"}],"stateMutability":"view"},{"type":"function","name":"getPatternDelegations","inputs":[{"name":"patternTokenId","type":"uint256","internalType":"uint256"}],"outputs":[{"name":"","type":"uint256[]","internalType":"uint256[]"}],"stateMutability":"view"},{"type":"function","name":"owner","inputs":[],"outputs":[{"name":"","type":"address","internalType":"address"}],"stateMutability":"view"},{"type":"function","name":"pause","inputs":[],"outputs":[],"stateMutability":"nonpayable"},{"type":"function","name":"paused","inputs":[],"outputs":[{"name":"","type":"bool","internalType":"bool"}],"stateMutability":"view"},{"type":"function","name":"recordExecution","inputs":[{"name":"delegationId","type":"uint256","internalType":"uint256"},{"name":"token","type":"address","internalType":"address"},{"name":"amount","type":"uint256","internalType":"uint256"},{"name":"success","type":"bool","internalType":"bool"}],"outputs":[],"stateMutability":"nonpayable"},{"type":"function","name":"renounceOwnership","inputs":[],"outputs":[],"stateMutability":"nonpayable"},{"type":"function","name":"revokeDelegation","inputs":[{"name":"delegationId","type":"uint256","internalType":"uint256"}],"outputs":[],"stateMutability":"nonpayable"},{"type":"function","name":"setExecutionEngine","inputs":[{"name":"engine","type":"address","internalType":"address"}],"outputs":[],"stateMutability":"nonpayable"},{"type":"function","name":"setSmartAccountFactory","inputs":[{"name":"factory","type":"address","internalType":"address"}],"outputs":[],"stateMutability":"nonpayable"},{"type":"function","name":"smartAccountFactory","inputs":[],"outputs":[{"name":"","type":"address","internalType":"address"}],"stateMutability":"view"},{"type":"function","name":"totalDelegations","inputs":[],"outputs":[{"name":"","type":"uint256","internalType":"uint256"}],"stateMutability":"view"},{"type":"function","name":"transferOwnership","inputs":[{"name":"newOwner","type":"address","internalType":"address"}],"outputs":[],"stateMutability":"nonpayable"},{"type":"function","name":"unpause","inputs":[],"outputs":[],"stateMutability":"nonpayable"},{"type":"function","name":"updateDelegationConditions","inputs":[{"name":"delegationId","type":"uint256","internalType":"uint256"},{"name":"newConditions","type":"tuple","internalType":"struct DelegationRouter.ConditionalRequirements","components":[{"name":"minWinRate","type":"uint256","internalType":"uint256"},{"name":"minROI","type":"int256","internalType":"int256"},{"name":"minVolume","type":"uint256","internalType":"uint256"},{"name":"isActive","type":"bool","internalType":"bool"}]}],"outputs":[],"stateMutability":"nonpayable"},{"type":"function","name":"updateDelegationPercentage","inputs":[{"name":"delegationId","type":"uint256","internalType":"uint256"},{"name":"newPercentage","type":"uint256","internalType":"uint256"}],"outputs":[],"stateMutability":"nonpayable"},{"type":"function","name":"validateExecution","inputs":[{"name":"delegationId","type":"uint256","internalType":"uint256"},{"name":"token","type":"address","internalType":"address"},{"name":"amount","type":"uint256","internalType":"uint256"},{"name":"currentWinRate","type":"uint256","internalType":"uint256"},{"name":"currentROI","type":"int256","internalType":"int256"},{"name":"currentVolume","type":"uint256","internalType":"uint256"}],"outputs":[{"name":"isValid","type":"bool","internalType":"bool"},{"name":"reason","type":"string","internalType":"string"}],"stateMutability":"view"},{"type":"event","name":"ConditionalCheckFailed","inputs":[{"name":"delegationId","type":"uint256","indexed":true,"internalType":"uint256"},{"name":"patternTokenId","type":"uint256","indexed":true,"internalType":"uint256"},{"name":"reason","type":"string","indexed":false,"internalType":"string"},{"name":"timestamp","type":"uint256","indexed":false,"internalType":"uint256"}],"anonymous":false},{"type":"event","name":"DelegationCreated","inputs":[{"name":"delegationId","type":"uint256","indexed":true,"internalType":"uint256"},{"name":"delegator","type":"address","indexed":true,"internalType":"address"},{"name":"patternTokenId","type":"uint256","indexed":true,"internalType":"uint256"},{"name":"percentageAllocation","type":"uint256","indexed":false,"internalType":"uint256"},{"name":"smartAccountAddress","type":"address","indexed":false,"internalType":"address"},{"name":"timestamp","type":"uint256","indexed":false,"internalType":"uint256"}],"anonymous":false},{"type":"event","name":"DelegationRevoked","inputs":[{"name":"delegationId","type":"uint256","indexed":true,"internalType":"uint256"},{"name":"delegator","type":"address","indexed":true,"internalType":"address"},{"name":"patternTokenId","type":"uint256","indexed":true,"internalType":"uint256"},{"name":"timestamp","type":"uint256","indexed":false,"internalType":"uint256"}],"anonymous":false},{"type":"event","name":"DelegationUpdated","inputs":[{"name":"delegationId","type":"uint256","indexed":true,"internalType":"uint256"},{"name":"percentageAllocation","type":"uint256","indexed":false,"internalType":"uint256"},{"name":"timestamp","type":"uint256","indexed":false,"internalType":"uint256"}],"anonymous":false},{"type":"event","name":"ExecutionEngineUpdated","inputs":[{"name":"oldEngine","type":"address","indexed":true,"internalType":"address"},{"name":"newEngine","type":"address","indexed":true,"internalType":"address"}],"anonymous":false},{"type":"event","name":"OwnershipTransferred","inputs":[{"name":"previousOwner","type":"address","indexed":true,"internalType":"address"},{"name":"newOwner","type":"address","indexed":true,"internalType":"address"}],"anonymous":false},{"type":"event","name":"Paused","inputs":[{"name":"account","type":"address","indexed":false,"internalType":"address"}],"anonymous":false},{"type":"event","name":"SmartAccountFactoryUpdated","inputs":[{"name":"oldFactory","type":"address","indexed":true,"internalType":"address"},{"name":"newFactory","type":"address","indexed":true,"internalType":"address"}],"anonymous":false},{"type":"event","name":"TradeExecuted","inputs":[{"name":"delegationId","type":"uint256","indexed":true,"internalType":"uint256"},{"name":"patternTokenId","type":"uint256","indexed":true,"internalType":"uint256"},{"name":"executor","type":"address","indexed":true,"internalType":"address"},{"name":"token","type":"address","indexed":false,"internalType":"address"},{"name":"amount","type":"uint256","indexed":false,"internalType":"uint256"},{"name":"success","type":"bool","indexed":false,"internalType":"bool"},{"name":"timestamp","type":"uint256","indexed":false,"internalType":"uint256"}],"anonymous":false},{"type":"event","name":"Unpaused","inputs":[{"name":"account","type":"address","indexed":false,"internalType":"address"}],"anonymous":false},{"type":"error","name":"ConditionalRequirementsNotMet","inputs":[]},{"type":"error","name":"DelegationAlreadyExists","inputs":[]},{"type":"error","name":"DelegationExpired","inputs":[]},{"type":"error","name":"DelegationInactive","inputs":[]},{"type":"error","name":"DelegationNotFound","inputs":[]},{"type":"error","name":"EnforcedPause","inputs":[]},{"type":"error","name":"ExpectedPause","inputs":[]},{"type":"error","name":"InvalidAddress","inputs":[]},{"type":"error","name":"InvalidPatternId","inputs":[]},{"type":"error","name":"InvalidPercentage","inputs":[]},{"type":"error","name":"InvalidPermissions","inputs":[]},{"type":"error","name":"InvalidSmartAccount","inputs":[]},{"type":"error","name":"MaxDepthExceeded","inputs":[]},{"type":"error","name":"OwnableInvalidOwner","inputs":[{"name":"owner","type":"address","internalType":"address"}]},{"type":"error","name":"OwnableUnauthorizedAccount","inputs":[{"name":"account","type":"address","internalType":"address"}]},{"type":"error","name":"PatternInactive","inputs":[]},{"type":"error","name":"ReentrancyGuardReentrantCall","inputs":[]},{"type":"error","name":"SpendingLimitExceeded","inputs":[]},{"type":"error","name":"TokenNotAllowed","inputs":[]},{"type":"error","name":"Unauthorized","inputs":[]}],"bytecode":{"object":"0x60a060405234801562000010575f80fd5b50604051620028a3380380620028a383398101604081905262000033916200013e565b806001600160a01b0381166200006257604051631e4fbdf760e01b81525f600482015260240160405180910390fd5b6200006d81620000d3565b505f805460ff60a01b19169055600180556001600160a01b03821615806200009c57506001600160a01b038116155b15620000bb5760405163e6c4247b60e01b815260040160405180910390fd5b506001600160a01b0316608052600160025562000174565b5f80546001600160a01b038381166001600160a01b0319831681178455604051919092169283917f8be0079c531659141344cd1fd0a4f28419497f9722a3daafe3b4186f6b6457e09190a35050565b80516001600160a01b038116811462000139575f80fd5b919050565b5f806040838503121562000150575f80fd5b6200015b8362000122565b91506200016b6020840162000122565b90509250929050565b608051612701620001a25f395f8181610200015281816107b901528181610bed015261107001526127015ff3fe608060405234801561000f575f80fd5b50600436106101dc575f3560e01c80635c975abb116101095780638cb8a1be1161009e578063cdb17d8a1161006e578063cdb17d8a14610516578063f2fde38b14610536578063f73acd6214610549578063fc630ee31461055c575f80fd5b80638cb8a1be146104b75780638da5cb5b146104ca578063bd3d425d146104da578063c4336c1c146104ed575f80fd5b8063761f26e4116100d9578063761f26e414610481578063793b24e9146104945780637969a713146104a75780638456cb59146104af575f80fd5b80635c975abb146104375780636ad870c114610453578063715018a61461046657806372d6ba351461046e575f80fd5b80632f637d021161017f57806343e51e911161014f57806343e51e91146103cd57806348861e1c146104085780634c255c971461041b5780635657f8eb14610424575f80fd5b80632f637d021461030d5780633eccb60f146103225780633f4ba83a146103b2578063422b3a56146103ba575f80fd5b80630dd35701116101ba5780630dd357011461025a5780631479b8941461027a5780631aa401ee146102d957806323a92172146102fa575f80fd5b806305b9cb3c146101e057806307254ef2146101fb5780630b6f884a1461023a575b5f80fd5b6101e8610564565b6040519081526020015b60405180910390f35b6102227f000000000000000000000000000000000000000000000000000000000000000081565b6040516001600160a01b0390911681526020016101f2565b61024d610248366004611fb1565b610579565b6040516101f29190611fca565b61026d61026836600461200d565b6105e2565b6040516101f291906120ab565b6102b761028836600461200d565b5f9081526003602081905260409091209081015460048201546005830154600790930154919390929160ff1690565b60408051948552602085019390935291830152151560608201526080016101f2565b6102ec6102e7366004612179565b61074c565b6040516101f29291906121c3565b600854610222906001600160a01b031681565b61032061031b36600461230c565b610b11565b005b61037361033036600461200d565b5f908152600360205260409020805460018201546002830154600f840154600c909401546001600160a01b03938416959294919360ff8316936101009093041691565b604080516001600160a01b03978816815260208101969096528501939093529015156060840152909216608082015260a081019190915260c0016101f2565b610320610bb4565b6101e86103c8366004612337565b610bc6565b6102b76103db36600461200d565b5f90815260036020526040902060088101546009820154600a830154600b90930154919390929160ff1690565b610320610416366004611fb1565b610fc9565b6101e861271081565b6101e8610432366004612369565b611049565b5f54600160a01b900460ff1660405190151581526020016101f2565b61024d61046136600461200d565b6113fe565b61032061145b565b61032061047c36600461249f565b61146c565b61032061048f366004611fb1565b6116ff565b6103206104a23660046124e4565b61177f565b6101e8600381565b61032061185d565b6101e86104c5366004612504565b61186d565b5f546001600160a01b0316610222565b6103206104e836600461200d565b611897565b6105006104fb36600461200d565b61197a565b6040516101f29a9998979695949392919061252c565b61052961052436600461200d565b611aa4565b6040516101f291906125b9565b610320610544366004611fb1565b611c9b565b600954610222906001600160a01b031681565b6101e8606481565b5f6001600254610574919061265e565b905090565b6001600160a01b0381165f908152600460209081526040918290208054835181840281018401909452808452606093928301828280156105d657602002820191905f5260205f20905b8154815260200190600101908083116105c2575b50505050509050919050565b6105ea611e6b565b5f8281526003602081815260409283902083516101408101855281546001600160a01b03168152600182015481840152600282015481860152845160a0810186529382018054855260048301548585015260058301548587015260068301805487518187028101870190985280885292969395606080890196919593949086019392918301828280156106a457602002820191905f5260205f20905b81546001600160a01b03168152600190910190602001808311610686575b50505091835250506004919091015460ff9081161515602092830152918352604080516080808201835260088701548252600987015482850152600a87015482840152600b8701548516151560608084019190915293860191909152600c86015491850191909152600d85015491840191909152600e84015490830152600f90920154918216151560a08201526101009091046001600160a01b031660c09091015292915050565b5f868152600360205260408120600f8101546060919060ff1661079d57505060408051808201909152601381527244656c65676174696f6e20696e61637469766560681b60208201525f9150610b06565b6001810154604051631b6b1cdb60e01b815260048101919091527f00000000000000000000000000000000000000000000000000000000000000006001600160a01b031690631b6b1cdb90602401602060405180830381865afa158015610806573d5f803e3d5ffd5b505050506040513d601f19601f8201168201806040525081019061082a9190612671565b61085f57505060408051808201909152601081526f5061747465726e20696e61637469766560801b60208201525f9150610b06565b6005810154158015906108755750600581015442115b156108ad57505060408051808201909152601281527111195b1959d85d1a5bdb88195e1c1a5c995960721b60208201525f9150610b06565b60068101541561095a575f805b600683015481101561091c57896001600160a01b03168360030160030182815481106108e8576108e861268c565b5f918252602090912001546001600160a01b03160361090a576001915061091c565b80610914816126a0565b9150506108ba565b5080610958575f60405180604001604052806011815260200170151bdad95b881b9bdd08185b1b1bddd959607a1b815250935093505050610b06565b505b600381015487111561099b575050604080518082019091526014815273115e18d959591cc81c195c8b5d1e081b1a5b5a5d60621b60208201525f9150610b06565b600d810154600e8201546109b290620151806126b8565b42106109bb57505f5b60048201546109ca89836126b8565b1115610a08575f60405180604001604052806013815260200172115e18d959591cc819185a5b1e481b1a5b5a5d606a1b815250935093505050610b06565b600b82015460ff1615610aee576008820154871015610a63575f6040518060400160405280601881526020017f57696e20726174652062656c6f77207468726573686f6c640000000000000000815250935093505050610b06565b6009820154861215610aa7575f604051806040016040528060138152602001721493d24818995b1bddc81d1a1c995cda1bdb19606a1b815250935093505050610b06565b600a820154851015610aee575f60405180604001604052806016815260200175159bdb1d5b594818995b1bddc81d1a1c995cda1bdb1960521b815250935093505050610b06565b600160405180602001604052805f8152509350935050505b965096945050505050565b5f8281526003602052604090205482906001600160a01b03163314610b48576040516282b42960e81b815260040160405180910390fd5b5f838152600360205260409020600f81015460ff16610b7a57604051633dc2b22960e11b815260040160405180910390fd5b82516008820155602083015160098201556040830151600a820155606090920151600b909201805460ff1916921515929092179091555050565b610bbc611cdd565b610bc4611d09565b565b5f610bcf611d5d565b610bd7611d87565b604051631b6b1cdb60e01b8152600481018590527f00000000000000000000000000000000000000000000000000000000000000006001600160a01b031690631b6b1cdb90602401602060405180830381865afa158015610c3a573d5f803e3d5ffd5b505050506040513d601f19601f82011682018060405250810190610c5e9190612671565b610c7b57604051631b30bff160e11b815260040160405180910390fd5b6064831080610c8b575061271083115b15610ca957604051631f3b85d360e01b815260040160405180910390fd5b335f90815260066020908152604080832087845290915290205415610ce1576040516345197a1960e11b815260040160405180910390fd5b6001600160a01b038216610d0857604051636afdfe6f60e01b815260040160405180910390fd5b600280545f9182610d18836126a0565b9190505590505f6040518060a001604052805f1981526020015f1981526020015f81526020015f67ffffffffffffffff811115610d5757610d57612218565b604051908082528060200260200182016040528015610d80578160200160208202803683370190505b5081525f6020918201819052604080516080808201835283825281850184905281830184905260608083018590528351610140810185523381528087018e81528186018e81528284018a81529483018690524260a0840181905260c0840189905260e0840152600161010084018190526001600160a01b038f81166101208601528d8a526003808c5299899020855181546001600160a01b03191692169190911781559251908301555160028201559251805196840196875580880151600485015594850151600584015590840151805197985092969095919492610e6c926006870192910190611f1f565b506080918201516004918201805460ff1990811692151592909217905591840151805160088501556020808201516009860155604080830151600a870155606092830151600b870180549096169015151790945560a0860151600c86015560c0860151600d86015560e0860151600e86015561010080870151600f9096018054610120909801516001600160a81b0319909816961515610100600160a81b031916969096176001600160a01b0397881690910217909455335f818152928552838320805460018181018355918552868520018a90558d84526005865284842080549182018155845285842001899055808352600685528383208d845285529183902088905582518b8152948a169385019390935242918401919091528992909186917fb91dd8e1b5266cc3ead95b747cefa4e3eccca4af2f75e05e5310f2184787f0c3910160405180910390a450506001805590505b9392505050565b610fd1611cdd565b6001600160a01b038116610ff85760405163e6c4247b60e01b815260040160405180910390fd5b600880546001600160a01b038381166001600160a01b0319831681179093556040519116919082907fd13638ddb7bd39a95d14d3ff86ee1f50da033ca78309b38e1ae1dcbf3c75166e905f90a35050565b5f611052611d5d565b61105a611d87565b604051631b6b1cdb60e01b8152600481018790527f00000000000000000000000000000000000000000000000000000000000000006001600160a01b031690631b6b1cdb90602401602060405180830381865afa1580156110bd573d5f803e3d5ffd5b505050506040513d601f19601f820116820180604052508101906110e19190612671565b6110fe57604051631b30bff160e11b815260040160405180910390fd5b606485108061110e575061271085115b1561112c57604051631f3b85d360e01b815260040160405180910390fd5b335f90815260066020908152604080832089845290915290205415611164576040516345197a1960e11b815260040160405180910390fd5b6001600160a01b03821661118b57604051636afdfe6f60e01b815260040160405180910390fd5b6040840151158015906111a2575042846040015111155b156111c05760405163932d94f760e01b815260040160405180910390fd5b600280545f91826111d0836126a0565b90915550604080516101408101825233815260208082018b81528284018b815260608085018c8152608086018c90524260a087018190525f60c0880181905260e0880191909152600161010088018190526001600160a01b038d81166101208a01528a83526003808952928a9020895181546001600160a01b03191692169190911781559551908601559251600285015551805192840192835580850151600485015595860151600584015585015180519697509395919493909261129d92600687019290910190611f1f565b506080918201516004918201805460ff1990811692151592909217905591840151805160088501556020808201516009860155604080830151600a870155606092830151600b870180549096169015151790945560a0860151600c86015560c0860151600d86015560e0860151600e86015561010080870151600f9096018054610120909801516001600160a81b0319909816961515610100600160a81b031916969096176001600160a01b0397881690910217909455335f818152928552838320805460018181018355918552868520018890558d84526005865284842080549182018155845285842001879055808352600685528383208d845285529183902086905582518b81529488169385019390935242918401919091528992909184917fb91dd8e1b5266cc3ead95b747cefa4e3eccca4af2f75e05e5310f2184787f0c3910160405180910390a490506113f560018055565b95945050505050565b5f818152600560209081526040918290208054835181840281018401909452808452606093928301828280156105d657602002820191905f5260205f20908154815260200190600101908083116105c25750505050509050919050565b611463611cdd565b610bc45f611db1565b6008546001600160a01b03163314611496576040516282b42960e81b815260040160405180910390fd5b61149e611d87565b5f848152600360205260409020600e8101546114bd90620151806126b8565b42106114d0575f600d82015542600e8201555b81156114ef578281600d015f8282546114e991906126b8565b90915550505b6040805160e081018252868152600180840180546020840190815233848601818152606086018a81526001600160a01b038c8116608089019081524260a08a018181528d151560c08c01908152600780549b8c0181555f8190529b519a909b027fa66cc928b5edb82af9bd49922954155ab7b0942694bea4ce44661d9a8736c68881019a909a5596517fa66cc928b5edb82af9bd49922954155ab7b0942694bea4ce44661d9a8736c6898a015593517fa66cc928b5edb82af9bd49922954155ab7b0942694bea4ce44661d9a8736c68a890180549184166001600160a01b031992831617905592517fa66cc928b5edb82af9bd49922954155ab7b0942694bea4ce44661d9a8736c68b890155517fa66cc928b5edb82af9bd49922954155ab7b0942694bea4ce44661d9a8736c68c8801805491909216921691909117905591517fa66cc928b5edb82af9bd49922954155ab7b0942694bea4ce44661d9a8736c68d85015593517fa66cc928b5edb82af9bd49922954155ab7b0942694bea4ce44661d9a8736c68e909301805493151560ff199094169390931790925554925191929188917f2214559bfe012e33f525fb7d8abd8b764c3840d8f926e895614f94a12326b59a916116e7918a918a918a916001600160a01b03949094168452602084019290925215156040830152606082015260800190565b60405180910390a4506116f960018055565b50505050565b611707611cdd565b6001600160a01b03811661172e5760405163e6c4247b60e01b815260040160405180910390fd5b600980546001600160a01b038381166001600160a01b0319831681179093556040519116919082907fd46d40b4147750177c3928847ad9d600ddbebf65adc41e08406adcf553abcde7905f90a35050565b5f8281526003602052604090205482906001600160a01b031633146117b6576040516282b42960e81b815260040160405180910390fd5b5f838152600360205260409020600f81015460ff166117e857604051633dc2b22960e11b815260040160405180910390fd5b60648310806117f8575061271083115b1561181657604051631f3b85d360e01b815260040160405180910390fd5b600281018390556040805184815242602082015285917fd6129671eb92d2d53f7b45249010ba57f7cfe31860f973545980c2f30bc3cf78910160405180910390a250505050565b611865611cdd565b610bc4611e00565b6001600160a01b0382165f9081526006602090815260408083208484529091529020545b92915050565b5f8181526003602052604090205481906001600160a01b031633146118ce576040516282b42960e81b815260040160405180910390fd5b5f828152600360205260408120600c81015490910361190057604051631dc8319b60e01b815260040160405180910390fd5b600f8101805460ff1916905580546001600160a01b039081165f90815260066020908152604080832060018601805485529083528184209390935591548454835142815293519194169287927f8d0bc90cb425a064fb05d2b9e13549ed0786f6c0e6b11d721fd5ab29fe568d8492918290030190a4505050565b600360208181525f928352604092839020805460018201546002830154865160a08101885295840180548752600485015487870152600585015487890152600685018054895181890281018901909a52808a526001600160a01b039095169893979296929491936060860193909290830182828015611a2057602002820191905f5260205f20905b81546001600160a01b03168152600190910190602001808311611a02575b50505091835250506004919091015460ff90811615156020928301526040805160808101825260088601548152600986015493810193909352600a85015490830152600b840154811615156060830152600c840154600d850154600e860154600f90960154949593949193909290919081169061010090046001600160a01b03168a565b60605f805b600754811015611afb578360078281548110611ac757611ac761268c565b905f5260205f2090600702015f015403611ae95781611ae5816126a0565b9250505b80611af3816126a0565b915050611aa9565b505f8167ffffffffffffffff811115611b1657611b16612218565b604051908082528060200260200182016040528015611b9457816020015b611b816040518060e001604052805f81526020015f81526020015f6001600160a01b031681526020015f81526020015f6001600160a01b031681526020015f81526020015f151581525090565b815260200190600190039081611b345790505b5090505f805b600754811015611c91578560078281548110611bb857611bb861268c565b905f5260205f2090600702015f015403611c7f5760078181548110611bdf57611bdf61268c565b5f9182526020918290206040805160e08101825260079093029091018054835260018101549383019390935260028301546001600160a01b0390811691830191909152600383015460608301526004830154166080820152600582015460a082015260069091015460ff16151560c08201528351849084908110611c6557611c6561268c565b60200260200101819052508180611c7b906126a0565b9250505b80611c89816126a0565b915050611b9a565b5090949350505050565b611ca3611cdd565b6001600160a01b038116611cd157604051631e4fbdf760e01b81525f60048201526024015b60405180910390fd5b611cda81611db1565b50565b5f546001600160a01b03163314610bc45760405163118cdaa760e01b8152336004820152602401611cc8565b611d11611e42565b5f805460ff60a01b191690557f5db9ee0a495bf2e6ff9c91a7834c1ba4fdd244a5e8aa4e537bd38aeae4b073aa335b6040516001600160a01b03909116815260200160405180910390a1565b5f54600160a01b900460ff1615610bc45760405163d93c066560e01b815260040160405180910390fd5b600260015403611daa57604051633ee5aeb560e01b815260040160405180910390fd5b6002600155565b5f80546001600160a01b038381166001600160a01b0319831681178455604051919092169283917f8be0079c531659141344cd1fd0a4f28419497f9722a3daafe3b4186f6b6457e09190a35050565b611e08611d5d565b5f805460ff60a01b1916600160a01b1790557f62e78cea01bee320cd4e420270b5ea74000d11b0c9f74754ebdbfc544b05a258611d403390565b5f54600160a01b900460ff16610bc457604051638dfc202b60e01b815260040160405180910390fd5b6040518061014001604052805f6001600160a01b031681526020015f81526020015f8152602001611ec26040518060a001604052805f81526020015f81526020015f8152602001606081526020015f151581525090565b8152602001611ef060405180608001604052805f81526020015f81526020015f81526020015f151581525090565b81526020015f81526020015f81526020015f81526020015f151581526020015f6001600160a01b031681525090565b828054828255905f5260205f20908101928215611f72579160200282015b82811115611f7257825182546001600160a01b0319166001600160a01b03909116178255602090920191600190910190611f3d565b50611f7e929150611f82565b5090565b5b80821115611f7e575f8155600101611f83565b80356001600160a01b0381168114611fac575f80fd5b919050565b5f60208284031215611fc1575f80fd5b610fc282611f96565b602080825282518282018190525f9190848201906040850190845b8181101561200157835183529284019291840191600101611fe5565b50909695505050505050565b5f6020828403121561201d575f80fd5b5035919050565b5f60a08301825184526020808401518186015260408401516040860152606084015160a0606087015282815180855260c08801915083830194505f92505b8083101561208b5784516001600160a01b03168252938301936001929092019190830190612062565b50608086015193506120a1608088018515159052565b9695505050505050565b602081526120c56020820183516001600160a01b03169052565b60208201516040820152604082015160608201525f60608301516101a08060808501526120f66101c0850183612024565b6080860151805160a0870152602081015160c0870152604081015160e0870152606081015115156101008701529092505060a0850151610120818187015260c087015161014087015260e0870151610160870152610100870151915061216161018087018315159052565b8601516001600160a01b038116838701529050611c91565b5f805f805f8060c0878903121561218e575f80fd5b8635955061219e60208801611f96565b95989597505050506040840135936060810135936080820135935060a0909101359150565b82151581525f602060408184015283518060408501525f5b818110156121f7578581018301518582016060015282016121db565b505f606082860101526060601f19601f830116850101925050509392505050565b634e487b7160e01b5f52604160045260245ffd5b60405160a0810167ffffffffffffffff8111828210171561224f5761224f612218565b60405290565b604051601f8201601f1916810167ffffffffffffffff8111828210171561227e5761227e612218565b604052919050565b8015158114611cda575f80fd5b8035611fac81612286565b5f608082840312156122ae575f80fd5b6040516080810181811067ffffffffffffffff821117156122d1576122d1612218565b806040525080915082358152602083013560208201526040830135604082015260608301356122ff81612286565b6060919091015292915050565b5f8060a0838503121561231d575f80fd5b8235915061232e846020850161229e565b90509250929050565b5f805f60608486031215612349575f80fd5b833592506020840135915061236060408501611f96565b90509250925092565b5f805f805f610100868803121561237e575f80fd5b853594506020808701359450604087013567ffffffffffffffff808211156123a4575f80fd5b9088019060a0828b0312156123b7575f80fd5b6123bf61222c565b823581528383013584820152604083013560408201526060830135828111156123e6575f80fd5b8301601f81018c136123f6575f80fd5b80358381111561240857612408612218565b8060051b9350612419868501612255565b818152938201860193868101908e861115612432575f80fd5b928701925b858410156124575761244884611f96565b82529287019290870190612437565b60608501525061246c91505060808401612293565b608082015280965050505050612485876060880161229e565b915061249360e08701611f96565b90509295509295909350565b5f805f80608085870312156124b2575f80fd5b843593506124c260208601611f96565b92506040850135915060608501356124d981612286565b939692955090935050565b5f80604083850312156124f5575f80fd5b50508035926020909101359150565b5f8060408385031215612515575f80fd5b61251e83611f96565b946020939093013593505050565b5f6101a060018060a01b03808e1684528c60208501528b604085015281606085015261255a8285018c612024565b8a51608086015260208b015160a086015260408b015160c08601526060909a0151151560e08501526101008401989098525050610120810194909452610140840192909252151561016083015290911661018090910152949350505050565b602080825282518282018190525f919060409081850190868401855b8281101561263d578151805185528681015187860152858101516001600160a01b0390811687870152606080830151908701526080808301519091169086015260a0808201519086015260c09081015115159085015260e090930192908501906001016125d5565b5091979650505050505050565b634e487b7160e01b5f52601160045260245ffd5b818103818111156118915761189161264a565b5f60208284031215612681575f80fd5b8151610fc281612286565b634e487b7160e01b5f52603260045260245ffd5b5f600182016126b1576126b161264a565b5060010190565b808201808211156118915761189161264a56fea26469706673582212208751aae562d62d44fe1ac582f2a3093dd481805386f6944a96035505b06bcd9c64736f6c63430008140033","linkReferences":{}},"methodIdentifiers":{"MAX_DELEGATION_DEPTH()":"7969a713","MAX_PERCENTAGE()":"4c255c97","MIN_PERCENTAGE()":"fc630ee3","behavioralNFT()":"07254ef2","createDelegation(uint256,uint256,(uint256,uint256,uint256,address[],bool),(uint256,int256,uint256,bool),address)":"5657f8eb","createSimpleDelegation(uint256,uint256,address)":"422b3a56","delegations(uint256)":"c4336c1c","executionEngine()":"23a92172","getDelegation(uint256)":"0dd35701","getDelegationBasics(uint256)":"3eccb60f","getDelegationConditions(uint256)":"43e51e91","getDelegationExecutions(uint256)":"cdb17d8a","getDelegationId(address,uint256)":"8cb8a1be","getDelegationPermissions(uint256)":"1479b894","getDelegatorDelegations(address)":"0b6f884a","getPatternDelegations(uint256)":"6ad870c1","owner()":"8da5cb5b","pause()":"8456cb59","paused()":"5c975abb","recordExecution(uint256,address,uint256,bool)":"72d6ba35","renounceOwnership()":"715018a6","revokeDelegation(uint256)":"bd3d425d","setExecutionEngine(address)":"48861e1c","setSmartAccountFactory(address)":"761f26e4","smartAccountFactory()":"f73acd62","totalDelegations()":"05b9cb3c","transferOwnership(address)":"f2fde38b","unpause()":"3f4ba83a","updateDelegationConditions(uint256,(uint256,int256,uint256,bool))":"2f637d02","updateDelegationPercentage(uint256,uint256)":"793b24e9","validateExecution(uint256,address,uint256,uint256,int256,uint256)":"1aa401ee"},"id":0}